{
  "contractName": "Roulette",
  "abi": [
    {
      "constant": true,
      "inputs": [],
      "name": "minimumMint",
      "outputs": [
        {
          "name": "",
          "type": "uint256"
        }
      ],
      "payable": false,
      "stateMutability": "view",
      "type": "function"
    },
    {
      "constant": true,
      "inputs": [],
      "name": "maximumBet",
      "outputs": [
        {
          "name": "",
          "type": "uint256"
        }
      ],
      "payable": false,
      "stateMutability": "view",
      "type": "function"
    },
    {
      "constant": true,
      "inputs": [],
      "name": "owner",
      "outputs": [
        {
          "name": "",
          "type": "address"
        }
      ],
      "payable": false,
      "stateMutability": "view",
      "type": "function"
    },
    {
      "constant": true,
      "inputs": [],
      "name": "minimumBet",
      "outputs": [
        {
          "name": "",
          "type": "uint256"
        }
      ],
      "payable": false,
      "stateMutability": "view",
      "type": "function"
    },
    {
      "inputs": [
        {
          "name": "_minimumBet",
          "type": "uint256"
        },
        {
          "name": "_maximumBet",
          "type": "uint256"
        }
      ],
      "payable": false,
      "stateMutability": "nonpayable",
      "type": "constructor"
    },
    {
      "payable": false,
      "stateMutability": "nonpayable",
      "type": "fallback"
    },
    {
      "anonymous": false,
      "inputs": [
        {
          "indexed": false,
          "name": "_betNumber",
          "type": "uint256[]"
        },
        {
          "indexed": false,
          "name": "_winningNumber",
          "type": "uint256"
        },
        {
          "indexed": false,
          "name": "_amount",
          "type": "uint256"
        }
      ],
      "name": "Won",
      "type": "event"
    },
    {
      "anonymous": false,
      "inputs": [
        {
          "indexed": false,
          "name": "_balance",
          "type": "uint256"
        }
      ],
      "name": "Balance",
      "type": "event"
    },
    {
      "constant": false,
      "inputs": [],
      "name": "mint",
      "outputs": [],
      "payable": true,
      "stateMutability": "payable",
      "type": "function"
    },
    {
      "constant": false,
      "inputs": [
        {
          "name": "_number",
          "type": "uint256[]"
        },
        {
          "name": "_value",
          "type": "uint256[]"
        },
        {
          "name": "_factor",
          "type": "uint256[]"
        }
      ],
      "name": "bet",
      "outputs": [],
      "payable": true,
      "stateMutability": "payable",
      "type": "function"
    },
    {
      "constant": true,
      "inputs": [],
      "name": "checkContractBalance",
      "outputs": [
        {
          "name": "",
          "type": "uint256"
        }
      ],
      "payable": false,
      "stateMutability": "view",
      "type": "function"
    },
    {
      "constant": false,
      "inputs": [],
      "name": "kill",
      "outputs": [],
      "payable": false,
      "stateMutability": "nonpayable",
      "type": "function"
    }
  ],
  "bytecode": "0x6080604052670de0b6b3a764000060015566038d7ea4c6800060025567016345785d8a000060035534801561003357600080fd5b50604051604080610b7b8339810180604052810190808051906020019092919080519060200190929190505050336000806101000a81548173ffffffffffffffffffffffffffffffffffffffff021916908373ffffffffffffffffffffffffffffffffffffffff16021790555060008211156100b157816002819055505b60008111156100c257806003819055505b5050610aa8806100d36000396000f30060806040526004361061008e576000357c0100000000000000000000000000000000000000000000000000000000900463ffffffff168063121acdda146100a05780631249c58b146100cb578063227cade5146100d557806341c0e1b51461010057806350312c9e146101175780638da5cb5b14610142578063b7e1d35e14610199578063c38a8afd14610278575b34801561009a57600080fd5b50600080fd5b3480156100ac57600080fd5b506100b56102a3565b6040518082815260200191505060405180910390f35b6100d36102a9565b005b3480156100e157600080fd5b506100ea6102f9565b6040518082815260200191505060405180910390f35b34801561010c57600080fd5b506101156102ff565b005b34801561012357600080fd5b5061012c6103fe565b6040518082815260200191505060405180910390f35b34801561014e57600080fd5b5061015761041d565b604051808273ffffffffffffffffffffffffffffffffffffffff1673ffffffffffffffffffffffffffffffffffffffff16815260200191505060405180910390f35b610276600480360381019080803590602001908201803590602001908080602002602001604051908101604052809392919081815260200183836020028082843782019150505050505091929192908035906020019082018035906020019080806020026020016040519081016040528093929190818152602001838360200280828437820191505050505050919291929080359060200190820180359060200190808060200260200160405190810160405280939291908181526020018383602002808284378201915050505050509192919290505050610442565b005b34801561028457600080fd5b5061028d6106b3565b6040518082815260200191505060405180910390f35b60015481565b7fe8d947d7ebdd7b8b8fa2ad2022c7591418ac32d8c29c5f8a8fc9de52ffa540923073ffffffffffffffffffffffffffffffffffffffff16316040518082815260200191505060405180910390a1565b60035481565b600073d1a9d9ac8d7212aa83c22b0d74ac07d9b971339f90508073ffffffffffffffffffffffffffffffffffffffff166108fc3073ffffffffffffffffffffffffffffffffffffffff16319081150290604051600060405180830381858888f19350505050158015610375573d6000803e3d6000fd5b507fe8d947d7ebdd7b8b8fa2ad2022c7591418ac32d8c29c5f8a8fc9de52ffa540923073ffffffffffffffffffffffffffffffffffffffff16316040518082815260200191505060405180910390a16000809054906101000a900473ffffffffffffffffffffffffffffffffffffffff1673ffffffffffffffffffffffffffffffffffffffff16ff5b60003073ffffffffffffffffffffffffffffffffffffffff1631905090565b6000809054906101000a900473ffffffffffffffffffffffffffffffffffffffff1681565b600082518451148015610456575081518351145b8015610463575081518451145b151561046e57600080fd5b600090505b83518110156106a55760035483600181518110151561048e57fe5b90602001906020020151111580156104c057506002548360018151811015156104b357fe5b9060200190602002015110155b15156104cb57600080fd5b60018260018151811015156104dc57fe5b906020019060200201511015801561050d5750601182600181518110151561050057fe5b9060200190602002015111155b151561051857600080fd5b600460003373ffffffffffffffffffffffffffffffffffffffff1673ffffffffffffffffffffffffffffffffffffffff168152602001908152602001600020848281518110151561056557fe5b906020019060200201519080600181540180825580915050906001820390600052602060002001600090919290919091505550600460003373ffffffffffffffffffffffffffffffffffffffff1673ffffffffffffffffffffffffffffffffffffffff16815260200190815260200160002083828151811015156105e557fe5b906020019060200201519080600181540180825580915050906001820390600052602060002001600090919290919091505550600460003373ffffffffffffffffffffffffffffffffffffffff1673ffffffffffffffffffffffffffffffffffffffff168152602001908152602001600020828281518110151561066557fe5b9060200190602002015190806001815401808255809150509060018203906000526020600020016000909192909190915055508080600101915050610473565b6106ad6106b9565b50505050565b60025481565b60006024438115156106c757fe5b0690506106d3816106d6565b50565b6000806000809250600091505b600460003373ffffffffffffffffffffffffffffffffffffffff1673ffffffffffffffffffffffffffffffffffffffff168152602001908152602001600020805490508210156108535783600460003373ffffffffffffffffffffffffffffffffffffffff1673ffffffffffffffffffffffffffffffffffffffff1681526020019081526020016000208381548110151561077a57fe5b9060005260206000200154141561084857600460003373ffffffffffffffffffffffffffffffffffffffff1673ffffffffffffffffffffffffffffffffffffffff168152602001908152602001600020600283018154811015156107da57fe5b9060005260206000200154600460003373ffffffffffffffffffffffffffffffffffffffff1673ffffffffffffffffffffffffffffffffffffffff1681526020019081526020016000206001840181548110151561083457fe5b906000526020600020015402905080830192505b6003820191506106e3565b823073ffffffffffffffffffffffffffffffffffffffff1631101561088d573073ffffffffffffffffffffffffffffffffffffffff163192505b3373ffffffffffffffffffffffffffffffffffffffff166108fc849081150290604051600060405180830381858888f193505050501580156108d3573d6000803e3d6000fd5b507f0a6f370d085fa8a3277f1c362a8460782c72b95f97cec0d4535eb0b2a7f919db600460003373ffffffffffffffffffffffffffffffffffffffff1673ffffffffffffffffffffffffffffffffffffffff16815260200190815260200160002085856040518080602001848152602001838152602001828103825285818154815260200191508054801561098757602002820191906000526020600020905b815481526020019060010190808311610973575b505094505050505060405180910390a17fe8d947d7ebdd7b8b8fa2ad2022c7591418ac32d8c29c5f8a8fc9de52ffa540923073ffffffffffffffffffffffffffffffffffffffff16316040518082815260200191505060405180910390a1600460003373ffffffffffffffffffffffffffffffffffffffff1673ffffffffffffffffffffffffffffffffffffffff1681526020019081526020016000206000610a309190610a36565b50505050565b5080546000825590600052602060002090810190610a549190610a57565b50565b610a7991905b80821115610a75576000816000905550600101610a5d565b5090565b905600a165627a7a723058209ea70695078997bd99c00d938de00c528f1651a34c529d93108aecfe41982b6f0029",
  "source": "pragma solidity ^0.4.24;\n\n/// @title Contract to bet Ether for a number and win randomly when the number of bets is met.\ncontract Roulette {\n    address public owner;\n\n    uint public minimumMint = 1 ether;\n\n    uint public minimumBet = 1 finney; // Equal to 0.001 ether\n\n    uint public maximumBet = 100 finney; // Equal to 0.1 ether\n\n    mapping(address => uint[]) playerBets;\n\n    event Won(uint[] _betNumber, uint _winningNumber, uint _amount);\n\n    event Balance(uint _balance);\n\n    constructor (uint _minimumBet, uint _maximumBet) public {\n        owner = msg.sender;\n\n        if (_minimumBet > 0) minimumBet = _minimumBet;\n        if (_maximumBet > 0) maximumBet = _maximumBet;\n    }\n\n    function() public {\n        revert();\n    }\n\n    function mint() public payable {\n        emit Balance(address(this).balance);\n    }\n\n    function bet(uint[] _number, uint[] _value, uint[] _factor) public payable {\n        require(_number.length == _value.length && _value.length == _factor.length && _number.length == _factor.length);\n\n        for (uint i = 0; i < _number.length; i++) {\n                require(_value[1] <= maximumBet && _value[1] >= minimumBet);\n\n                require(_factor[1] >= 1 && _factor[1] <= 17);\n\n                playerBets[msg.sender].push(_number[i]);\n                playerBets[msg.sender].push(_value[i]);\n                playerBets[msg.sender].push(_factor[i]);\n        }\n\n        determineWinner();\n    }\n\n    function determineWinner() private {\n        uint winningNumber = block.number % 36;\n\n        distributePrizes(winningNumber);\n    }\n\n    function distributePrizes(uint _winningNumber) private {\n        uint totalAmount = 0;\n\n        for (uint i = 0; i < playerBets[msg.sender].length; i = i + 3) {\n            if (playerBets[msg.sender][i] == _winningNumber) {\n                uint amount = playerBets[msg.sender][i + 1] * playerBets[msg.sender][i + 2];\n                totalAmount += amount;\n            }\n        }\n\n        if (address(this).balance < totalAmount) {\n            totalAmount = address(this).balance;\n        }\n        msg.sender.transfer(totalAmount);\n\n        emit Won(playerBets[msg.sender], _winningNumber, totalAmount);\n        emit Balance(address(this).balance);\n\n        delete (playerBets[msg.sender]);\n    }\n\n    function checkContractBalance() public view returns (uint) {\n        return address(this).balance;\n    }\n\n    function kill() public {\n        address bank = 0xd1a9d9ac8D7212aa83C22b0d74AC07d9B971339f;\n        bank.transfer(address(this).balance);\n        emit Balance(address(this).balance);\n        selfdestruct(owner);\n    }\n}\n",
  "sourcePath": "/home/daniel/PhpstormProjects/Roulette-Ethereum/contracts/Roulette.sol",
  "compiler": {
    "name": "solc",
    "version": "0.4.24+commit.e67f0147.Emscripten.clang"
  },
  "schemaVersion": "2.0.0",
  "updatedAt": "2018-05-28T12:45:44.201Z"
}