{
  "contractName": "Roulette",
  "abi": [
    {
      "constant": true,
      "inputs": [],
      "name": "minimumMint",
      "outputs": [
        {
          "name": "",
          "type": "uint256"
        }
      ],
      "payable": false,
      "stateMutability": "view",
      "type": "function"
    },
    {
      "constant": true,
      "inputs": [],
      "name": "maximumBet",
      "outputs": [
        {
          "name": "",
          "type": "uint256"
        }
      ],
      "payable": false,
      "stateMutability": "view",
      "type": "function"
    },
    {
      "constant": true,
      "inputs": [],
      "name": "owner",
      "outputs": [
        {
          "name": "",
          "type": "address"
        }
      ],
      "payable": false,
      "stateMutability": "view",
      "type": "function"
    },
    {
      "constant": true,
      "inputs": [],
      "name": "minimumBet",
      "outputs": [
        {
          "name": "",
          "type": "uint256"
        }
      ],
      "payable": false,
      "stateMutability": "view",
      "type": "function"
    },
    {
      "inputs": [
        {
          "name": "_minimumBet",
          "type": "uint256"
        },
        {
          "name": "_maximumBet",
          "type": "uint256"
        }
      ],
      "payable": false,
      "stateMutability": "nonpayable",
      "type": "constructor"
    },
    {
      "payable": false,
      "stateMutability": "nonpayable",
      "type": "fallback"
    },
    {
      "anonymous": false,
      "inputs": [
        {
          "indexed": false,
          "name": "_betNumber",
          "type": "uint256[]"
        },
        {
          "indexed": false,
          "name": "_winningNumber",
          "type": "uint256"
        },
        {
          "indexed": false,
          "name": "_amount",
          "type": "uint256"
        }
      ],
      "name": "Won",
      "type": "event"
    },
    {
      "anonymous": false,
      "inputs": [
        {
          "indexed": false,
          "name": "_balance",
          "type": "uint256"
        }
      ],
      "name": "Balance",
      "type": "event"
    },
    {
      "constant": false,
      "inputs": [],
      "name": "mint",
      "outputs": [],
      "payable": true,
      "stateMutability": "payable",
      "type": "function"
    },
    {
      "constant": false,
      "inputs": [
        {
          "name": "_number",
          "type": "uint256[]"
        },
        {
          "name": "_factor",
          "type": "uint256"
        }
      ],
      "name": "bet",
      "outputs": [],
      "payable": true,
      "stateMutability": "payable",
      "type": "function"
    },
    {
      "constant": false,
      "inputs": [],
      "name": "determineWinner",
      "outputs": [],
      "payable": true,
      "stateMutability": "payable",
      "type": "function"
    },
    {
      "constant": true,
      "inputs": [],
      "name": "checkContractBalance",
      "outputs": [
        {
          "name": "",
          "type": "uint256"
        }
      ],
      "payable": false,
      "stateMutability": "view",
      "type": "function"
    },
    {
      "constant": false,
      "inputs": [],
      "name": "kill",
      "outputs": [],
      "payable": false,
      "stateMutability": "nonpayable",
      "type": "function"
    }
  ],
  "bytecode": "0x6080604052670de0b6b3a764000060015566038d7ea4c6800060025567016345785d8a000060035534801561003357600080fd5b50604051604080610ae88339810180604052810190808051906020019092919080519060200190929190505050336000806101000a81548173ffffffffffffffffffffffffffffffffffffffff021916908373ffffffffffffffffffffffffffffffffffffffff16021790555060008211156100b157816002819055505b60008111156100c257806003819055505b5050610a15806100d36000396000f300608060405260043610610099576000357c0100000000000000000000000000000000000000000000000000000000900463ffffffff1680630c872d92146100ab578063121acdda1461010e5780631249c58b14610139578063227cade51461014357806333b16d931461016e57806341c0e1b51461017857806350312c9e1461018f5780638da5cb5b146101ba578063c38a8afd14610211575b3480156100a557600080fd5b50600080fd5b61010c600480360381019080803590602001908201803590602001908080602002602001604051908101604052809392919081815260200183836020028082843782019150505050505091929192908035906020019092919050505061023c565b005b34801561011a57600080fd5b50610123610481565b6040518082815260200191505060405180910390f35b610141610487565b005b34801561014f57600080fd5b506101586104d7565b6040518082815260200191505060405180910390f35b6101766104dd565b005b34801561018457600080fd5b5061018d6104fa565b005b34801561019b57600080fd5b506101a46105f9565b6040518082815260200191505060405180910390f35b3480156101c657600080fd5b506101cf610618565b604051808273ffffffffffffffffffffffffffffffffffffffff1673ffffffffffffffffffffffffffffffffffffffff16815260200191505060405180910390f35b34801561021d57600080fd5b5061022661063d565b6040518082815260200191505060405180910390f35b600060018210158015610250575060118211155b151561025b57600080fd5b600254341015151561026c57600080fd5b600354341115151561027d57600080fd5b5b825181101561042e576000838281518110151561029757fe5b90602001906020020151101580156102c75750602483828151811015156102ba57fe5b9060200190602002015111155b15156102cf57fe5b600460003373ffffffffffffffffffffffffffffffffffffffff1673ffffffffffffffffffffffffffffffffffffffff168152602001908152602001600020838281518110151561031c57fe5b906020019060200201519080600181540180825580915050906001820390600052602060002001600090919290919091505550600460003373ffffffffffffffffffffffffffffffffffffffff1673ffffffffffffffffffffffffffffffffffffffff168152602001908152602001600020349080600181540180825580915050906001820390600052602060002001600090919290919091505550600460003373ffffffffffffffffffffffffffffffffffffffff1673ffffffffffffffffffffffffffffffffffffffff168152602001908152602001600020829080600181540180825580915050906001820390600052602060002001600090919290919091505550808060010191505061027e565b7fe8d947d7ebdd7b8b8fa2ad2022c7591418ac32d8c29c5f8a8fc9de52ffa540923073ffffffffffffffffffffffffffffffffffffffff16316040518082815260200191505060405180910390a1505050565b60015481565b7fe8d947d7ebdd7b8b8fa2ad2022c7591418ac32d8c29c5f8a8fc9de52ffa540923073ffffffffffffffffffffffffffffffffffffffff16316040518082815260200191505060405180910390a1565b60035481565b60006001438115156104eb57fe5b0690506104f781610643565b50565b600073d1a9d9ac8d7212aa83c22b0d74ac07d9b971339f90508073ffffffffffffffffffffffffffffffffffffffff166108fc3073ffffffffffffffffffffffffffffffffffffffff16319081150290604051600060405180830381858888f19350505050158015610570573d6000803e3d6000fd5b507fe8d947d7ebdd7b8b8fa2ad2022c7591418ac32d8c29c5f8a8fc9de52ffa540923073ffffffffffffffffffffffffffffffffffffffff16316040518082815260200191505060405180910390a16000809054906101000a900473ffffffffffffffffffffffffffffffffffffffff1673ffffffffffffffffffffffffffffffffffffffff16ff5b60003073ffffffffffffffffffffffffffffffffffffffff1631905090565b6000809054906101000a900473ffffffffffffffffffffffffffffffffffffffff1681565b60025481565b6000806000809250600091505b600460003373ffffffffffffffffffffffffffffffffffffffff1673ffffffffffffffffffffffffffffffffffffffff168152602001908152602001600020805490508210156107c05783600460003373ffffffffffffffffffffffffffffffffffffffff1673ffffffffffffffffffffffffffffffffffffffff168152602001908152602001600020838154811015156106e757fe5b906000526020600020015414156107b557600460003373ffffffffffffffffffffffffffffffffffffffff1673ffffffffffffffffffffffffffffffffffffffff1681526020019081526020016000206002830181548110151561074757fe5b9060005260206000200154600460003373ffffffffffffffffffffffffffffffffffffffff1673ffffffffffffffffffffffffffffffffffffffff168152602001908152602001600020600184018154811015156107a157fe5b906000526020600020015402905080830192505b600382019150610650565b823073ffffffffffffffffffffffffffffffffffffffff163110156107fa573073ffffffffffffffffffffffffffffffffffffffff163192505b3373ffffffffffffffffffffffffffffffffffffffff166108fc849081150290604051600060405180830381858888f19350505050158015610840573d6000803e3d6000fd5b507f0a6f370d085fa8a3277f1c362a8460782c72b95f97cec0d4535eb0b2a7f919db600460003373ffffffffffffffffffffffffffffffffffffffff1673ffffffffffffffffffffffffffffffffffffffff1681526020019081526020016000208585604051808060200184815260200183815260200182810382528581815481526020019150805480156108f457602002820191906000526020600020905b8154815260200190600101908083116108e0575b505094505050505060405180910390a17fe8d947d7ebdd7b8b8fa2ad2022c7591418ac32d8c29c5f8a8fc9de52ffa540923073ffffffffffffffffffffffffffffffffffffffff16316040518082815260200191505060405180910390a1600460003373ffffffffffffffffffffffffffffffffffffffff1673ffffffffffffffffffffffffffffffffffffffff168152602001908152602001600020600061099d91906109a3565b50505050565b50805460008255906000526020600020908101906109c191906109c4565b50565b6109e691905b808211156109e25760008160009055506001016109ca565b5090565b905600a165627a7a72305820227cfcc9f9abdf3ac57ee592dfba85e8e3e09484ce3333fca6030d5075894a640029",
  "source": "pragma solidity ^0.4.21;\n\n/// @title Contract to bet Ether for a number and win randomly when the number of bets is met.\ncontract Roulette {\n    address public owner;\n\n    uint public minimumMint = 1 ether;\n\n    uint public minimumBet = 1 finney; // Equal to 0.001 ether\n\n    uint public maximumBet = 100 finney; // Equal to 0.1 ether\n\n    mapping(address => uint[]) playerBets;\n\n    event Won(uint[] _betNumber, uint _winningNumber, uint _amount);\n\n    event Balance(uint _balance);\n\n    constructor (uint _minimumBet, uint _maximumBet) public {\n        owner = msg.sender;\n\n        if (_minimumBet > 0) minimumBet = _minimumBet;\n        if (_maximumBet > 0) maximumBet = _maximumBet;\n    }\n\n    function() public {\n        revert();\n    }\n\n    function mint() public payable {\n        emit Balance(address(this).balance);\n    }\n\n    function bet(uint[] _number, uint _factor) public payable {\n        require(_factor >= 1 && _factor <= 17);\n\n        require(msg.value >= minimumBet);\n\n        require(msg.value <= maximumBet);\n\n        for (uint j; j < _number.length; j++) {\n            assert(_number[j] >= 0 && _number[j] <= 36);\n\n            playerBets[msg.sender].push(_number[j]);\n            playerBets[msg.sender].push(msg.value);\n            playerBets[msg.sender].push(_factor);\n        }\n\n        emit Balance(address(this).balance);\n    }\n\n    function determineWinner() public payable {\n        uint winningNumber = block.number % 1;\n\n        distributePrizes(winningNumber);\n    }\n\n    function distributePrizes(uint _winningNumber) private {\n        uint totalAmount = 0;\n\n        for (uint i = 0; i < playerBets[msg.sender].length; i = i + 3) {\n            if (playerBets[msg.sender][i] == _winningNumber) {\n                uint amount = playerBets[msg.sender][i + 1] * playerBets[msg.sender][i + 2];\n                totalAmount += amount;\n            }\n        }\n\n        if (address(this).balance < totalAmount) {\n            totalAmount = address(this).balance;\n        }\n        msg.sender.transfer(totalAmount);\n\n        emit Won(playerBets[msg.sender], _winningNumber, totalAmount);\n        emit Balance(address(this).balance);\n\n        delete (playerBets[msg.sender]);\n    }\n\n    function checkContractBalance() public view returns (uint) {\n        return address(this).balance;\n    }\n\n    function kill() public {\n        address bank = 0xd1a9d9ac8D7212aa83C22b0d74AC07d9B971339f;\n        bank.transfer(address(this).balance);\n        emit Balance(address(this).balance);\n        selfdestruct(owner);\n    }\n}\n",
  "sourcePath": "/home/daniel/PhpstormProjects/Roulette-Ethereum/contracts/Roulette.sol",
  "compiler": {
    "name": "solc",
    "version": "0.4.24+commit.e67f0147.Emscripten.clang"
  },
  "schemaVersion": "2.0.0",
  "updatedAt": "2018-05-28T07:28:13.294Z"
}