{
  "contractName": "Roulette",
  "abi": [
    {
      "constant": true,
      "inputs": [],
      "name": "minimumMint",
      "outputs": [
        {
          "name": "",
          "type": "uint256"
        }
      ],
      "payable": false,
      "stateMutability": "view",
      "type": "function"
    },
    {
      "constant": true,
      "inputs": [],
      "name": "maximumBet",
      "outputs": [
        {
          "name": "",
          "type": "uint256"
        }
      ],
      "payable": false,
      "stateMutability": "view",
      "type": "function"
    },
    {
      "constant": true,
      "inputs": [],
      "name": "owner",
      "outputs": [
        {
          "name": "",
          "type": "address"
        }
      ],
      "payable": false,
      "stateMutability": "view",
      "type": "function"
    },
    {
      "constant": true,
      "inputs": [],
      "name": "minimumBet",
      "outputs": [
        {
          "name": "",
          "type": "uint256"
        }
      ],
      "payable": false,
      "stateMutability": "view",
      "type": "function"
    },
    {
      "inputs": [
        {
          "name": "_minimumBet",
          "type": "uint256"
        },
        {
          "name": "_maximumBet",
          "type": "uint256"
        }
      ],
      "payable": false,
      "stateMutability": "nonpayable",
      "type": "constructor"
    },
    {
      "payable": false,
      "stateMutability": "nonpayable",
      "type": "fallback"
    },
    {
      "anonymous": false,
      "inputs": [
        {
          "indexed": false,
          "name": "_betNumber",
          "type": "uint256[]"
        },
        {
          "indexed": false,
          "name": "_winningNumber",
          "type": "uint256"
        },
        {
          "indexed": false,
          "name": "_amount",
          "type": "uint256"
        }
      ],
      "name": "Won",
      "type": "event"
    },
    {
      "anonymous": false,
      "inputs": [
        {
          "indexed": false,
          "name": "_balance",
          "type": "uint256"
        }
      ],
      "name": "Balance",
      "type": "event"
    },
    {
      "constant": false,
      "inputs": [],
      "name": "mint",
      "outputs": [],
      "payable": true,
      "stateMutability": "payable",
      "type": "function"
    },
    {
      "constant": false,
      "inputs": [
        {
          "name": "_number",
          "type": "uint256[]"
        },
        {
          "name": "_value",
          "type": "uint256[]"
        },
        {
          "name": "_factor",
          "type": "uint256[]"
        }
      ],
      "name": "bet",
      "outputs": [],
      "payable": true,
      "stateMutability": "payable",
      "type": "function"
    },
    {
      "constant": true,
      "inputs": [],
      "name": "checkContractBalance",
      "outputs": [
        {
          "name": "",
          "type": "uint256"
        }
      ],
      "payable": false,
      "stateMutability": "view",
      "type": "function"
    },
    {
      "constant": false,
      "inputs": [],
      "name": "kill",
      "outputs": [],
      "payable": false,
      "stateMutability": "nonpayable",
      "type": "function"
    }
  ],
  "bytecode": "0x6080604052670de0b6b3a7640000600155655af3107a4000600255662386f26fc1000060035534801561003157600080fd5b506040516040806108a68339810180604052810190808051906020019092919080519060200190929190505050336000806101000a81548173ffffffffffffffffffffffffffffffffffffffff021916908373ffffffffffffffffffffffffffffffffffffffff16021790555060008211156100af57816002819055505b60008111156100c057806003819055505b50506107d5806100d16000396000f30060806040526004361061008e576000357c0100000000000000000000000000000000000000000000000000000000900463ffffffff168063121acdda146100a05780631249c58b146100cb578063227cade5146100d557806341c0e1b51461010057806350312c9e146101175780638da5cb5b14610142578063b7e1d35e14610199578063c38a8afd14610278575b34801561009a57600080fd5b50600080fd5b3480156100ac57600080fd5b506100b56102a3565b6040518082815260200191505060405180910390f35b6100d36102a9565b005b3480156100e157600080fd5b506100ea6102f9565b6040518082815260200191505060405180910390f35b34801561010c57600080fd5b506101156102ff565b005b34801561012357600080fd5b5061012c6103fe565b6040518082815260200191505060405180910390f35b34801561014e57600080fd5b5061015761041d565b604051808273ffffffffffffffffffffffffffffffffffffffff1673ffffffffffffffffffffffffffffffffffffffff16815260200191505060405180910390f35b610276600480360381019080803590602001908201803590602001908080602002602001604051908101604052809392919081815260200183836020028082843782019150505050505091929192908035906020019082018035906020019080806020026020016040519081016040528093929190818152602001838360200280828437820191505050505050919291929080359060200190820180359060200190808060200260200160405190810160405280939291908181526020018383602002808284378201915050505050509192919290505050610442565b005b34801561028457600080fd5b5061028d61047c565b6040518082815260200191505060405180910390f35b60015481565b7fe8d947d7ebdd7b8b8fa2ad2022c7591418ac32d8c29c5f8a8fc9de52ffa540923073ffffffffffffffffffffffffffffffffffffffff16316040518082815260200191505060405180910390a1565b60035481565b600073d1a9d9ac8d7212aa83c22b0d74ac07d9b971339f90508073ffffffffffffffffffffffffffffffffffffffff166108fc3073ffffffffffffffffffffffffffffffffffffffff16319081150290604051600060405180830381858888f19350505050158015610375573d6000803e3d6000fd5b507fe8d947d7ebdd7b8b8fa2ad2022c7591418ac32d8c29c5f8a8fc9de52ffa540923073ffffffffffffffffffffffffffffffffffffffff16316040518082815260200191505060405180910390a16000809054906101000a900473ffffffffffffffffffffffffffffffffffffffff1673ffffffffffffffffffffffffffffffffffffffff16ff5b60003073ffffffffffffffffffffffffffffffffffffffff1631905090565b6000809054906101000a900473ffffffffffffffffffffffffffffffffffffffff1681565b81518351148015610454575080518251145b8015610461575080518351145b151561046c57600080fd5b610477838383610482565b505050565b60025481565b6000806001430340600190049150600090505b84518110156104fd5784818151811015156104ac57fe5b906020019060200201518201915083818151811015156104c857fe5b906020019060200201518201915082818151811015156104e457fe5b9060200190602002015182019150806001019050610495565b60258281151561050957fe5b0691506105188585858561051f565b5050505050565b6000806000809250600091505b865182101561064957868281518110151561054357fe5b9060200190602002015160001115801561057557506024878381518110151561056857fe5b9060200190602002015111155b151561058057600080fd5b848281518110151561058e57fe5b906020019060200201516001111580156105c05750602385838151811015156105b357fe5b9060200190602002015111155b15156105cb57600080fd5b8387838151811015156105da57fe5b90602001906020020151141561063c5784828151811015156105f857fe5b90602001906020020151868381518110151561061057fe5b90602001906020020151029050858281518110151561062b57fe5b906020019060200201518101830192505b818060010192505061052c565b823073ffffffffffffffffffffffffffffffffffffffff16311015610683573073ffffffffffffffffffffffffffffffffffffffff163192505b3373ffffffffffffffffffffffffffffffffffffffff166108fc849081150290604051600060405180830381858888f193505050501580156106c9573d6000803e3d6000fd5b507f0a6f370d085fa8a3277f1c362a8460782c72b95f97cec0d4535eb0b2a7f919db8785856040518080602001848152602001838152602001828103825285818151815260200191508051906020019060200280838360005b8381101561073d578082015181840152602081019050610722565b5050505090500194505050505060405180910390a17fe8d947d7ebdd7b8b8fa2ad2022c7591418ac32d8c29c5f8a8fc9de52ffa540923073ffffffffffffffffffffffffffffffffffffffff16316040518082815260200191505060405180910390a1505050505050505600a165627a7a72305820e59658f68f0dc216c1f27017d88bbfb745df84a5ba63be1e1427e0c158fc3c8d0029",
  "source": "pragma solidity ^0.4.24;\n\n/// @title Contract to bet Ether for a number and win when the number of bets is met.\ncontract Roulette {\n    address public owner;\n\n    uint public minimumMint = 1 ether;\n\n    uint public minimumBet = 100 szabo; // Equal to 0.0001 ether\n\n    uint public maximumBet = 10 finney; // Equal to 0.01 ether\n\n    event Won(uint[] _betNumber, uint _winningNumber, uint _amount);\n\n    event Balance(uint _balance);\n\n    constructor (uint _minimumBet, uint _maximumBet) public {\n        owner = msg.sender;\n\n        if (_minimumBet > 0) minimumBet = _minimumBet;\n        if (_maximumBet > 0) maximumBet = _maximumBet;\n    }\n\n    function() public {\n        revert();\n    }\n\n    function mint() public payable {\n        emit Balance(address(this).balance);\n    }\n\n    function bet(uint[] _number, uint[] _value, uint[] _factor) public payable {\n        require(_number.length == _value.length && _value.length == _factor.length && _number.length == _factor.length);\n\n        determineWinner(_number, _value, _factor);\n    }\n\n    function determineWinner(uint[] _number, uint[] _value, uint[] _factor) private {\n        uint winningNumber = uint(blockhash(block.number - 1));\n        for (uint i = 0; i < _number.length; ++i) {\n            winningNumber += _number[i];\n            winningNumber += _value[i];\n            winningNumber += _factor[i];\n        }\n\n        winningNumber = winningNumber % 37;\n\n        distributePrizes(_number, _value, _factor, winningNumber);\n    }\n\n    function distributePrizes(uint[] _number, uint[] _value, uint[] _factor, uint _winningNumber) private {\n        uint totalAmount = 0;\n\n        for (uint i = 0; i < _number.length; i++) {\n            require(0 <= _number[i] && _number[i] <= 36);\n\n            require(1 <= _factor[i] && _factor[i] <= 35);\n\n            if (_number[i] == _winningNumber) {\n                uint amount = _value[i] * _factor[i];\n                totalAmount += amount + _value[i];\n            }\n        }\n\n        if (address(this).balance < totalAmount) {\n            totalAmount = address(this).balance;\n        }\n        msg.sender.transfer(totalAmount);\n\n        emit Won(_number, _winningNumber, totalAmount);\n        emit Balance(address(this).balance);\n    }\n\n    function checkContractBalance() public view returns (uint) {\n        return address(this).balance;\n    }\n\n    function kill() public {\n        address bank = 0xd1a9d9ac8D7212aa83C22b0d74AC07d9B971339f;\n        bank.transfer(address(this).balance);\n        emit Balance(address(this).balance);\n        selfdestruct(owner);\n    }\n}\n",
  "sourcePath": "/home/daniel/PhpstormProjects/Roulette-Ethereum/contracts/Roulette.sol",
  "compiler": {
    "name": "solc",
    "version": "0.4.24+commit.e67f0147.Emscripten.clang"
  },
  "schemaVersion": "2.0.0",
  "updatedAt": "2018-06-17T13:56:16.342Z"
}