{
  "contractName": "Roulette",
  "abi": [
    {
      "constant": true,
      "inputs": [],
      "name": "minimumMint",
      "outputs": [
        {
          "name": "",
          "type": "uint256"
        }
      ],
      "payable": false,
      "stateMutability": "view",
      "type": "function"
    },
    {
      "constant": true,
      "inputs": [],
      "name": "maximumBet",
      "outputs": [
        {
          "name": "",
          "type": "uint256"
        }
      ],
      "payable": false,
      "stateMutability": "view",
      "type": "function"
    },
    {
      "constant": true,
      "inputs": [],
      "name": "owner",
      "outputs": [
        {
          "name": "",
          "type": "address"
        }
      ],
      "payable": false,
      "stateMutability": "view",
      "type": "function"
    },
    {
      "constant": true,
      "inputs": [],
      "name": "minimumBet",
      "outputs": [
        {
          "name": "",
          "type": "uint256"
        }
      ],
      "payable": false,
      "stateMutability": "view",
      "type": "function"
    },
    {
      "inputs": [
        {
          "name": "_minimumBet",
          "type": "uint256"
        },
        {
          "name": "_maximumBet",
          "type": "uint256"
        }
      ],
      "payable": false,
      "stateMutability": "nonpayable",
      "type": "constructor"
    },
    {
      "payable": false,
      "stateMutability": "nonpayable",
      "type": "fallback"
    },
    {
      "anonymous": false,
      "inputs": [
        {
          "indexed": false,
          "name": "_betNumber",
          "type": "uint256[]"
        },
        {
          "indexed": false,
          "name": "_winningNumber",
          "type": "uint256"
        },
        {
          "indexed": false,
          "name": "_amount",
          "type": "uint256"
        }
      ],
      "name": "Won",
      "type": "event"
    },
    {
      "anonymous": false,
      "inputs": [
        {
          "indexed": false,
          "name": "_balance",
          "type": "uint256"
        }
      ],
      "name": "Balance",
      "type": "event"
    },
    {
      "constant": false,
      "inputs": [],
      "name": "mint",
      "outputs": [],
      "payable": true,
      "stateMutability": "payable",
      "type": "function"
    },
    {
      "constant": false,
      "inputs": [
        {
          "name": "_number",
          "type": "uint256[]"
        },
        {
          "name": "_value",
          "type": "uint256[]"
        },
        {
          "name": "_factor",
          "type": "uint256[]"
        }
      ],
      "name": "bet",
      "outputs": [],
      "payable": true,
      "stateMutability": "payable",
      "type": "function"
    },
    {
      "constant": true,
      "inputs": [],
      "name": "checkContractBalance",
      "outputs": [
        {
          "name": "",
          "type": "uint256"
        }
      ],
      "payable": false,
      "stateMutability": "view",
      "type": "function"
    },
    {
      "constant": false,
      "inputs": [],
      "name": "kill",
      "outputs": [],
      "payable": false,
      "stateMutability": "nonpayable",
      "type": "function"
    },
    {
      "constant": false,
      "inputs": [],
      "name": "removeBets",
      "outputs": [],
      "payable": false,
      "stateMutability": "nonpayable",
      "type": "function"
    }
  ],
  "bytecode": "0x6080604052670de0b6b3a764000060015566038d7ea4c6800060025567016345785d8a000060035534801561003357600080fd5b50604051604080610cf38339810180604052810190808051906020019092919080519060200190929190505050336000806101000a81548173ffffffffffffffffffffffffffffffffffffffff021916908373ffffffffffffffffffffffffffffffffffffffff16021790555060008211156100b157816002819055505b60008111156100c257806003819055505b5050610c20806100d36000396000f300608060405260043610610099576000357c0100000000000000000000000000000000000000000000000000000000900463ffffffff168063121acdda146100ab5780631249c58b146100d6578063227cade5146100e057806341c0e1b51461010b57806350312c9e146101225780638da5cb5b1461014d578063a65fbf94146101a4578063b7e1d35e146101bb578063c38a8afd1461029a575b3480156100a557600080fd5b50600080fd5b3480156100b757600080fd5b506100c06102c5565b6040518082815260200191505060405180910390f35b6100de6102cb565b005b3480156100ec57600080fd5b506100f561031b565b6040518082815260200191505060405180910390f35b34801561011757600080fd5b50610120610321565b005b34801561012e57600080fd5b50610137610420565b6040518082815260200191505060405180910390f35b34801561015957600080fd5b5061016261043f565b604051808273ffffffffffffffffffffffffffffffffffffffff1673ffffffffffffffffffffffffffffffffffffffff16815260200191505060405180910390f35b3480156101b057600080fd5b506101b9610464565b005b6102986004803603810190808035906020019082018035906020019080806020026020016040519081016040528093929190818152602001838360200280828437820191505050505050919291929080359060200190820180359060200190808060200260200160405190810160405280939291908181526020018383602002808284378201915050505050509192919290803590602001908201803590602001908080602002602001604051908101604052809392919081815260200183836020028082843782019150505050505091929192905050506104b1565b005b3480156102a657600080fd5b506102af610769565b6040518082815260200191505060405180910390f35b60015481565b7fe8d947d7ebdd7b8b8fa2ad2022c7591418ac32d8c29c5f8a8fc9de52ffa540923073ffffffffffffffffffffffffffffffffffffffff16316040518082815260200191505060405180910390a1565b60035481565b6000732c5d0a6279e7e8f42032e1dc33418208ddc508fd90508073ffffffffffffffffffffffffffffffffffffffff166108fc3073ffffffffffffffffffffffffffffffffffffffff16319081150290604051600060405180830381858888f19350505050158015610397573d6000803e3d6000fd5b507fe8d947d7ebdd7b8b8fa2ad2022c7591418ac32d8c29c5f8a8fc9de52ffa540923073ffffffffffffffffffffffffffffffffffffffff16316040518082815260200191505060405180910390a16000809054906101000a900473ffffffffffffffffffffffffffffffffffffffff1673ffffffffffffffffffffffffffffffffffffffff16ff5b60003073ffffffffffffffffffffffffffffffffffffffff1631905090565b6000809054906101000a900473ffffffffffffffffffffffffffffffffffffffff1681565b600460003373ffffffffffffffffffffffffffffffffffffffff1673ffffffffffffffffffffffffffffffffffffffff16815260200190815260200160002060006104af9190610bae565b565b6000825184511480156104c5575081518351145b80156104d2575081518451145b15156104dd57600080fd5b600090505b835181101561075b5783818151811015156104f957fe5b9060200190602002015160001115801561052b57506032848281518110151561051e57fe5b9060200190602002015111155b151561053657600080fd5b828181518110151561054457fe5b90602001906020020151600254111580156105785750600354838281518110151561056b57fe5b9060200190602002015111155b151561058357600080fd5b6001828281518110151561059357fe5b90602001906020020151101580156105c35750601182828151811015156105b657fe5b9060200190602002015111155b15156105ce57600080fd5b600460003373ffffffffffffffffffffffffffffffffffffffff1673ffffffffffffffffffffffffffffffffffffffff168152602001908152602001600020848281518110151561061b57fe5b906020019060200201519080600181540180825580915050906001820390600052602060002001600090919290919091505550600460003373ffffffffffffffffffffffffffffffffffffffff1673ffffffffffffffffffffffffffffffffffffffff168152602001908152602001600020838281518110151561069b57fe5b906020019060200201519080600181540180825580915050906001820390600052602060002001600090919290919091505550600460003373ffffffffffffffffffffffffffffffffffffffff1673ffffffffffffffffffffffffffffffffffffffff168152602001908152602001600020828281518110151561071b57fe5b90602001906020020151908060018154018082558091505090600182039060005260206000200160009091929091909150555080806001019150506104e2565b61076361076f565b50505050565b60025481565b6000806001430340600190049150600090505b600460003373ffffffffffffffffffffffffffffffffffffffff1673ffffffffffffffffffffffffffffffffffffffff1681526020019081526020016000208054905081101561083257600460003373ffffffffffffffffffffffffffffffffffffffff1673ffffffffffffffffffffffffffffffffffffffff1681526020019081526020016000208181548110151561081857fe5b906000526020600020015482019150806001019050610782565b60258281151561083e57fe5b06915061084a8261084e565b5050565b6000806000809250600091505b600460003373ffffffffffffffffffffffffffffffffffffffff1673ffffffffffffffffffffffffffffffffffffffff168152602001908152602001600020805490508210156109cb5783600460003373ffffffffffffffffffffffffffffffffffffffff1673ffffffffffffffffffffffffffffffffffffffff168152602001908152602001600020838154811015156108f257fe5b906000526020600020015414156109c057600460003373ffffffffffffffffffffffffffffffffffffffff1673ffffffffffffffffffffffffffffffffffffffff1681526020019081526020016000206002830181548110151561095257fe5b9060005260206000200154600460003373ffffffffffffffffffffffffffffffffffffffff1673ffffffffffffffffffffffffffffffffffffffff168152602001908152602001600020600184018154811015156109ac57fe5b906000526020600020015402905080830192505b60038201915061085b565b823073ffffffffffffffffffffffffffffffffffffffff16311015610a05573073ffffffffffffffffffffffffffffffffffffffff163192505b3373ffffffffffffffffffffffffffffffffffffffff166108fc849081150290604051600060405180830381858888f19350505050158015610a4b573d6000803e3d6000fd5b507f0a6f370d085fa8a3277f1c362a8460782c72b95f97cec0d4535eb0b2a7f919db600460003373ffffffffffffffffffffffffffffffffffffffff1673ffffffffffffffffffffffffffffffffffffffff168152602001908152602001600020858560405180806020018481526020018381526020018281038252858181548152602001915080548015610aff57602002820191906000526020600020905b815481526020019060010190808311610aeb575b505094505050505060405180910390a17fe8d947d7ebdd7b8b8fa2ad2022c7591418ac32d8c29c5f8a8fc9de52ffa540923073ffffffffffffffffffffffffffffffffffffffff16316040518082815260200191505060405180910390a1600460003373ffffffffffffffffffffffffffffffffffffffff1673ffffffffffffffffffffffffffffffffffffffff1681526020019081526020016000206000610ba89190610bae565b50505050565b5080546000825590600052602060002090810190610bcc9190610bcf565b50565b610bf191905b80821115610bed576000816000905550600101610bd5565b5090565b905600a165627a7a72305820d080efc1bd14a2dcc688e5544baac7ed0a6709ac16e6b2f14b051112b84d52930029",
  "source": "pragma solidity ^0.4.24;\n\n/// @title Contract to bet Ether for a number and win randomly when the number of bets is met.\ncontract Roulette {\n    address public owner;\n\n    uint public minimumMint = 1 ether;\n\n    uint public minimumBet = 1 finney; // Equal to 0.001 ether\n\n    uint public maximumBet = 100 finney; // Equal to 0.1 ether\n\n    mapping(address => uint[]) playerBets;\n\n    event Won(uint[] _betNumber, uint _winningNumber, uint _amount);\n\n    event Balance(uint _balance);\n\n    constructor (uint _minimumBet, uint _maximumBet) public {\n        owner = msg.sender;\n\n        if (_minimumBet > 0) minimumBet = _minimumBet;\n        if (_maximumBet > 0) maximumBet = _maximumBet;\n    }\n\n    function() public {\n        revert();\n    }\n\n    function mint() public payable {\n        emit Balance(address(this).balance);\n    }\n\n    function bet(uint[] _number, uint[] _value, uint[] _factor) public payable {\n        require(_number.length == _value.length && _value.length == _factor.length && _number.length == _factor.length);\n\n        for (uint i = 0; i < _number.length; i++) {\n            require(0 <= _number[i] && _number[i] <= 50);\n\n            require(minimumBet <= _value[i] && _value[i] <= maximumBet);\n\n            require(_factor[i] >= 1 && _factor[i] <= 17);\n\n            playerBets[msg.sender].push(_number[i]);\n            playerBets[msg.sender].push(_value[i]);\n            playerBets[msg.sender].push(_factor[i]);\n        }\n\n        determineWinner();\n    }\n\n    function determineWinner() private {\n        uint winningNumber = uint(blockhash(block.number - 1));\n        for (uint i = 0; i < playerBets[msg.sender].length; ++i) {\n            winningNumber += playerBets[msg.sender][i];\n        }\n\n        winningNumber = winningNumber % 37;\n\n        distributePrizes(winningNumber);\n    }\n\n    function distributePrizes(uint _winningNumber) private {\n        uint totalAmount = 0;\n\n        for (uint i = 0; i < playerBets[msg.sender].length; i = i + 3) {\n            if (playerBets[msg.sender][i] == _winningNumber) {\n                uint amount = playerBets[msg.sender][i + 1] * playerBets[msg.sender][i + 2];\n                totalAmount += amount;\n            }\n        }\n\n        if (address(this).balance < totalAmount) {\n            totalAmount = address(this).balance;\n        }\n        msg.sender.transfer(totalAmount);\n\n        emit Won(playerBets[msg.sender], _winningNumber, totalAmount);\n        emit Balance(address(this).balance);\n\n        delete (playerBets[msg.sender]);\n    }\n\n    function checkContractBalance() public view returns (uint) {\n        return address(this).balance;\n    }\n\n    function kill() public {\n        address bank = 0x2c5D0A6279E7e8F42032E1dc33418208DDC508FD;\n        bank.transfer(address(this).balance);\n        emit Balance(address(this).balance);\n        selfdestruct(owner);\n    }\n\n    function removeBets() public {\n        delete (playerBets[msg.sender]);\n    }\n}\n",
  "sourcePath": "/Users/alex/PhpstormProjects/Roulette-Ethereum/contracts/Roulette.sol",
  "compiler": {
    "name": "solc",
    "version": "0.4.24+commit.e67f0147.Emscripten.clang"
  },
  "schemaVersion": "2.0.0",
  "updatedAt": "2018-06-07T11:44:11.502Z"
}